:101839002020202020202020D6D020B9FA20BFC681
:1018490020D1A720D4BA2020202020202020002029
:10185900202020B0B2BBD5B9E2D1A7BEABC3DCBB57
:10186900FAD0B5D1D0BEBFCBF92020202000B5B128
:10187900C7B0BDC7B6C82000B6C800B5B1C7B0D695
:10188900B500B7BDCFF200C4A3CABD00D7B4CCAC74
:101899000076657273696F6E20312C61696F666DB0
:1018A9002C686663617300D4CBD0D000CDA3D6B9C0
:1018B90000C4E6CAB1D5EB00CBB3CAB1D5EB00B3CE
:0918C900A3B9E600CEA2B5F700B8
:101C1500016164045B000000000A41303132333455
:101C250035363738390F4C5830303E2B3030303060
:061C350030303030303089
:100B9800755F9375602012139275878075985075EC
:100BA8008920758DF3758BF3D288D28AD28ED2AA1A
:100BB800D2A8D2ACD2AFD2A6751A01751B40751C4B
:100BC80000751D1FE4FBFA7DF0FCFFFE121B437B42
:100BD800FF7A18793974FFF51BF51C751D00751E11
:100BE8001F7D107C00E4FFFE1219F67BFF7A18794E
:100BF8005874FFF51BF51C751D00751E1F7D287C9C
:100C080000E4FFFE1219F67BFF7A18797774FFF576
:100C18001BF51C751D00751E1F7D487C00E4FFFE3A
:100C28001219F67BFF7A18798174FFF51BF51C758C
:100C38001D00751E1F7D487C007F6E7E001219F610
:100C48007BFF7A18798474FFF51BF51C751D0075F8
:100C58001E1F7D587C00E4FFFE1219F67BFF7A18F0
:100C6800798B74FFF51BF51C751D00751E1F7D78AB
:100C78007C00E4FFFE1219F67BFF7A18799074FF66
:100C8800F51BF51C751D00751E1F7D987C00E4FF83
:100C9800FE1219F67BFF7A18799574FFF51BF51C7F
:100CA800751D00751E1F7DB87C00E4FFFE1219F645
:100CB8007BFF7A18799A74FFF51BF51C751D007572
:100CC8001E1F7D307C01E4FFFE02102A74FFF5250B
:100CD800F52675270075281FAB577D587C007F4681
:100CE8007E00121A7F74FFF525F5267527007528F2
:100CF8001FAB587D587C007F4E7E00121A7F74FF10
:100D0800F525F52675270075281FAB597D587C00F9
:100D18007F567E00121A7F74FFF525F52675270089
:100D280075281FAB5A7D587C007F5E7E00121A7FA3
:100D3800AF5C7E007C007D641212DBAA06AB07AFB5
:100D48005B7E007C037DE81212DBEF2BFDEE3AFCA4
:100D5800E55D75F00AA42DFFE5F03CFE7C00EF256B
:100D68005EFDEC3EFC1211DB7B007AF0797F784562
:100D7800121139E4FBFA79B478431210308F138ECC
:100D8800128D118C10121214AB07AA067C007D6418
:100D98001212ED8E088F097C007D0AAF03AE021295
:100DA80012ED7C007D0A1212ED8C0A8D0BAF13AE8A
:100DB80012AD11AC101212147C007D0A1212ED8CC7
:100DC8000C8D0DE4FFFE7D207C41AB13AA12A91106
:100DD800A8101210301212147C007D0A1212ED8C29
:100DE8000E8D0F74412509F8E6FB74FFF525F526ED
:100DF80075270075281F7D487C007F467E00121AE3
:100E08007F7441250BF8E6FB74FFF525F526752759
:100E18000075281F7D487C007F4E7E00121A7F7463
:100E280041250DF8E6FB74FFF525F52675270075B5
:100E3800281F7D487C007F567E00121A7F74FFF5BC
:100E480025F52675270075281F7B2E7D487C007F99
:100E58005E7E00121A7F7441250FF8E6FB74FFF5D9
:100E680025F52675270075281F7D487C007F667E3E
:100E780000121A7F209503020F367BFF2092277AF3
:100E88001879B074FFF51BF51C751D00751E1F7DC4
:100E9800B87C007F287E001219F6758CF9758A18BF
:100EA800D2A9D28C80217A1879B574FFF51BF51C6C
:100EB800751D00751E1F7DB87C007F287E001219E5
:100EC800F6C2A9C28CC2A77BFF30931F7A1879BAE1
:100ED80074FFF51BF51C751D00751E1F7D787C00C1
:100EE8007F287E001219F6C2A6801D7A1879C1746F
:100EF800FFF51BF51C751D00751E1F7D787C007F96
:100F0800287E001219F6D2A67BFF3094067A18794B
:100F1800C880047A1879CD74FFF51BF51C751D007F
:100F2800751E1F7D987C007F287E0002102AE563CD
:100F3800604A24FD700302100D24F47003020FCCE4
:100F480024DF7003020FEE2440605724F16003028F
:100F58000CD47BFF7A1879B074FFF51BF51C751D4E
:100F680000751E1F7DB87C007F287E001219F6755B
:100F78008CF9758A18D2A9D28C020CD47BFF7A1806
:100F880079B574FFF51BF51C751D00751E1F7DB81E
:100F98007C007F287E001219F6C2A9C28CC2A70263
:100FA8000CD47BFF7A1879BA74FFF51BF51C751DF4
:100FB80000751E1F7D787C007F287E001219F6C2FE
:100FC800A6020CD47BFF7A1879C174FFF51BF51CB7
:100FD800751D00751E1F7D787C007F287E00121904
:100FE800F6D2A6020CD4E4F5407BFF7A1879C874CF
:100FF800FFF51BF51C751D00751E1F7D987C007F75
:10100800287E00801D7540017BFF7A1879CD74FF1A
:10101800F51BF51C751D00751E1F7D987C007F282B
:081028007E001219F6020CD43F
:030023000218D2EE
:0918D200C0E0C0D075D000C000D8
:1018DB0020980302196330955B85994BE54BB458FF
:1018EB0003756100E56124F46019146025146031FF
:1018FB002403703A744C2561F8A64BE54B24D0F5C4
:10190B005B802B744C2561F8A64BE54B24D0F55C22
:10191B00801C744C2561F8A64BE54B24D0F55D80FB
:10192B000D744C2561F8A64BE54B24D0F55EC2989F
:10193B000561802485994B854B63E54B6488701357
:10194B00E540B4010ED2A70000000000C2A70000C2
:08195B00000000754B00C2986A
:07196300D000D0D0D0E0322B
:03000B00020016DA
:09001600758CF9758A18B2A73245
:03000300021BBF1E
:0D1BBF00C0E0C0D075D000C004C006C00753
:101BCC007FC87E00EF1FAC0670011E4C70F620B271
:061BDC0005209402D2A7CF
:0B1BE200D007D006D004D0D0D0E032F5
:03001300021C8E3E
:061C8E00209402D2A732EF
:1000260000000000000000000000000000000000CA
:10003600000000101010101010100000181800001A
:1000460000123624480000000000000000000000F6
:10005600000000242424FE484848FE484848000082
:1000660000001038545450301814145454381010DA
:1000760000000044A4A8A8A8541A2A2A2A4400006A
:1000860000000030484848506EA4948889760000E5
:1000960000606020C00000000000000000000000BA
:1000A60000020408081010101010100808040200BE
:1000B600004020101008080808080810102040000A
:1000C600000000001010D63838D6101000000000CE
:1000D6000000000010101010FE101010100000009C
:1000E600000000000000000000000000606020C06A
:1000F60000000000000000007F000000000000007B
:100106000000000000000000000000006060000029
:1001160000000102020404080810102020404000DC
:100126000000001824424242424242422418000083
:10013600000000107010101010101010107C00003D
:100146000000003C4242420404081020427E0000A7
:100156000000003C424204180402024244380000F7
:10016600000000040C14242444447E04041E0000F1
:100176000000007E404040586402024244380000BD
:100186000000001C244040586442424224180000EB
:100196000000007E444408081010101010100000E3
:1001A6000000003C4242422418244242423C0000E5
:1001B6000000001824424242261A02022438000097
:1001C60000000000000018180000000018180000C9
:1001D60000000000000000100000000000101020C9
:1001E600000000020408102040201008040200004D
:1001F600000000000000FE000000FE0000000000FD
:1002060000000040201008040204081020400000EE
:100216000000003C42426202040808001818000070
:1002260000000038445AAAAAAAAAB44244380000D8
:100236000000001010182828243C444242E7000021
:10024600000000F8444444784442424244F8000026
:100256000000003E42428080808080424438000098
:10026600000000F8444242424242424244F8000042
:10027600000000FC424848784848404242FC0000E2
:10028600000000FC424848784848404040E00000F2
:100296000000003C44448080808E84444438000042
:1002A600000000E7424242427E42424242E70000EC
:1002B6000000007C1010101010101010107C0000B0
:1002C6000000003E0808080808080808080888F022
:1002D600000000EE444850705048484444EE000088
:1002E600000000E0404040404040404042FE0000E8
:1002F600000000EE6C6C6C6C5454545454D60000E0
:10030600000000C7626252524A4A4A4646E200006C
:100316000000003844828282828282824438000051
:10032600000000FC424242427C40404040E0000067
:1003360000000038448282828282B2CA4C380600AB
:10034600000000FC4242427C4848444442E300002C
:100356000000003E4242402018040242427C000057
:10036600000000FE9210101010101010103800003F
:10037600000000E74242424242424242423C000002
:10038600000000E7424244242428281810100000E8
:10039600000000D692929292AAAA6C4444440000AD
:1003A600000000E7422424181818242442E700001D
:1003B600000000EE444428281010101010380000E9
:1003C6000000007E840408081020204242FC000041
:1003D600001E1010101010101010101010101E001B
:1003E60000004040202010101008080404040202F7
:1003F60000780808080808080808080808087800A7
:10040600001C2200000000000000000000000000A8
:10041600000000000000000000000000000000FFD7
:100426000060100000000000000000000000000056
:10043600000000000000003C421E2242423F000035
:10044600000000C0404040586442424264580000E8
:10045600000000000000001C22404040221C00005A
:10046600000000060202021E22424242261B000033
:10047600000000000000003C427E4040423C00007C
:100486000000000F1110107E10101010107C0000DC
:10049600000000000000003E444438403C42423C1C
:1004A600000000C04040405C6242424242E7000019
:1004B600000000303000007010101010107C00009A
:1004C6000000000C0C00001C04040404040444781E
:1004D600000000C04040404E4850684844EE0000CE
:1004E600000000701010101010101010107C00008A
:1004F60000000000000000FE4949494949ED00009E
:1005060000000000000000DC6242424242E70000B8
:10051600000000000000003C42424242423C000013
:1005260000000000000000D864424242447840E0E7
:10053600000000000000001E22424242221E020766
:1005460000000000000000EE3220202020F800000D
:10055600000000000000003E42403C02427C0000D9
:10056600000000000010107C10101010100C00008D
:1005760000000000000000C642424242463B000026
:1005860000000000000000E74224242810100000AC
:1005960000000000000000D79292AAAA444400007E
:1005A600000000000000006E2418181824760000D1
:1005B60000000000000000E742242428181010E084
:1005C600000000000000007E44081010227E00009B
:1005D60000030404040404080404040404040300DB
:1005E6000808080808080808080808080808080885
:1005F600006010101010100810101010101060007D
:10060600304C430000000000000000000000000025
:100616000000007E7E7E7E7E7E7E7E7E0000000066
:10062600D6D00000000007000780070067387FF873
:10063600773877387FF87738070007000700070014
:100646000000B9FA0000000000007FFC70787FF817
:10065600733873F87FF873F873F87FF870387FF89B
:1006660070380000BFC60000000000603E70FBF05E
:100676001FF0FF703B703FF07FFC79F8DF709870D9
:10068600187018700000D1A70000000006003B702B
:100696001FE07FD87FFC7FF8E1F0039CFFFC03801E
:1006A60003801F8007000000D4BA0000000001800C
:1006B60059E07ED87FFC7E387FF078387FFC7FE07B
:1006C6007FF87BF867FC7CFC0000B0B200000000FD
:1006D6000600038033303FF8773C7E78FFFC0CE061
:1006E6001CC01FC003E00F787C380000BBD500009B
:1006F600000007003F707FE0FFF83FFC7FF87FF8BF
:10070600F7F8FFF07F707FF07EF87F9C0000B9E27B
:1007160000000000070027603F701FE01FC007B8F9
:100726007FFC0FC00FC00DD81DD81DD8F1FC0000EE
:10073600D1A70000000006003B701FE07FD87FFCB9
:100746007FF8E1F0039CFFFC038003801F80070015
:100756000000BEAB0000000038E038F8FFFC7CF873
:100766007FF8FEF83FFC7E307FF8FBF8FB383BF85D
:100776003BF80000C3DC00000000070023987FFC64
:10078600777CFFF03DF87FFC0E607FF8FB303B3056
:100796003FF038300000BBFA0000000038003B7024
:1007A6003FF0FFF03BF03BF07FF07FF0FBF0FBFC0F
:1007B6003F7C3E7C3C7C0000D0B50000000038E069
:1007C60030F838F8FFFC77E07FF87FF877F8F7F035
:1007D600F7FC3FFC3DFC3F9C0000D1D00000000030
:1007E60000000FFCFFF039F031F031FC7FFC7FF0A8
:1007F600FFF0FFF07FF07F707E700000BEBF00004C
:100806000000070033983FFC7FBCFFF03F70E6F026
:100816007FE00FC00FD80DD81DDCF0FC0000CBF92F
:100826000000000000001F7C79C077C07FFC77B015
:1008360077B07FB077B073B063B06330CE3000006E
:10084600B5B1000000000780673077783F601FC0B1
:1008560007B07FF800383FF8003800387FF80038D6
:100866000000C7B00000000018E00EE00FD8FFFC43
:1008760066387FF87FF877F87FF877F877387FF86B
:1008860076700000BDC70000000007000FE00FF003
:100896001DF03FF87BB8DFF81BB83FF83BB83BB814
:1008A60033B863F00000B6C80000000003003398B8
:1008B6003FFC3FE03FF83FFC3FE037E03FF036606B
:1008C60073C063F0FE7C0000B6C10000000061C08A
:1008D60071F03FF801D83FFCFBF83FF037F83FFCDA
:1008E60034C03DF03BB87E1C0000CA00000000008A
:1008F6001CC07FE07FE01FD8FFFC3FF8FBF0FFF055
:1009060036F07EE01FE03FF8F73C0000D6B5000069
:10091600000011C03DD83FFC37F0767077F0F670D6
:10092600F7F0767077F0767C7FFC70000000B7BD3C
:10093600020001000100FFFE04000400040007F0AD
:1009460004100410041008100810101020A04040D5
:10095600CFF20200040008007FFC4004400447C4B4
:10096600444444444444444447C444444004401436
:100976004008C4A31110111017FC1110FC0013F845
:1009860032083BF8560853F8904017FC10A0111097
:1009960012081406CABD0048004400440040FFFE89
:1009A600004000403E4008400840082008220F1240
:1009B600780A20060002B3A30100111009207FFE69
:1009C60040029FF410101FF001003FF82108210893
:1009D6002128211001000100B9E6100011FC1104C4
:1009E6007D04112411241124FF24112411541050C4
:1009F6002890249045128212040ECEA211081548A2
:100A06002548455097DE102420146FD4A01427944F
:100A1600249424A824C8249428143022B5F700006E
:100A260047FC2444244405F40444E44427FC2404F9
:100A360025F425142D1435F4240404140808CBB326
:100A4600040045FE5420544055FC550455245524B5
:100A5600552455245524554454505488850406027B
:100A6600CAB1000800087C08440845FE440844084A
:100A76007C0844884448444844087C0844080028C4
:100A86000010D5EB102010201E20202020207C20D6
:100A960093FE1020FE201020102012201420182073
:100AA60010200020C4E60208410821102FFE004055
:100AB6000040E4442444244427FC208421002200EE
:100AC60054008FFE0000D7B4084008480844484444
:100AD60028402FFE08400840184028A0C8A00890CB
:100AE600091009080A040C02CCAC010001007FFCC5
:100AF6000100028004400A203118C006010008885F
:100B060048844812481287F00000D4CB000023F82E
:100B160010001000000007FCF040108011101208B1
:100B260017FC12041000280047FE0000D0D0080071
:100B360009FC100020004800080013FE3020502059
:100B46009020102010201020102010A01040CDA3BF
:100B56001080104017FC200023F8620863F8A000FC
:100B66002FFE280223F820402040204021402080EC
:100B7600D6B901000100010001001100110011F8B1
:100B86001100110011001100110011001100FFFEEB
:020B960000005D
:091BED007C001217537F1E7E00DC
:101BF600E4FDFCC3ED9FEC9E5014E4FBFA0BBB0026
:0E1C0600010AEBF44A70F60DBD00010C80E5FA
:011C140022AD
:101C5C00C2A2C2A5D2A38F80D2A0C2A08D80C2A4E2
:061C6C0000D2A4D2A22266
:101C7200C2A2D2A58F80D2A0C2A08D80C2A4D2A4BB
:031C8200D2A222C9
:041C8500AD07AC06F5
:051C8900AF04021C7213
:101640007D01FCFF1217537D007C017F01121753AF
:101650007D007C077F021217537D307C107F0312C0
:101660001753E4FDFC7F041217537402FDFC7F083E
:10167000121753E4FDFC7F09121753E4FDFC7F0AA7
:10168000121753E4FDFC7F0C121753E4FDFC7F0D91
:10169000121753E4FDFC7F0F1217537F1E7E0012BA
:1016A0001BF67DB07C167F101217537F1E7E001232
:1016B0001BF67D077C007F111217537D3A7C017F5A
:1016C000121217537D007C1A7F131217537F1E7E50
:1016D00000121BF67D0C7C007F291217537F1E7EA3
:1016E00000121BF6E4FDFC7F301217537405FDFC5D
:1016F0007F311217537D047C037F321217537D060E
:101700007C007F351217537407FDFC7F3612175388
:101710007D057C017F371217537D027C007F3812D4
:1017200017537407FDFC7F391217537D047C077F24
:101730003C1217537D077C087F3D121753E4FDFCD4
:101740007F501217537DEF7C007F51121753E4FD39
:03175000FC7F52C9
:06175300AB05AA04AC077F
:10175900AF02AE07AD04E4FF121C5CAF06AD030295
:021769001C72F0
:041B88008E648F6573
:101B8C00753501753640E4FBFA7DF0FCFFFE121A48
:101B9C00FAE4FBFA900000AF65AE64121C85A3E575
:101BAC008264F0458370F00BBB00010ABA01E5BBFF
:021BBC0040E205
:011BBE002204
:061A7F008B248D828C8394
:091A8500EF2407121AE7E4FBFA52
:101A8E00AF24EF3395E0FEEFC4F8540FC868FFEEB5
:101A9E00C454F048FEEF2BFFEE3AFE74262FF5826B
:101AAE0074FE3EF583E493F529900000E52930E7B6
:101ABE0006AF26AE258004AF28AE27121C85E52979
:0D1ACE0025E0F529A3E5826408458370DF5B
:0B1ADB000BBB00010AEB64104A70A86E
:011AE60022DD
:0A176B008B248A2589268D828C8349
:10177500EF240F121AE7E4F52BF52CAB24AA25A9C3
:1017850026121295FF90062675F022E52C121331CC
:10179500E52B75F022A42583F583E4936F6003029E
:1017A50018249000011212AEFF90062775F022E56D
:1017B5002C121331E52B75F022A42583F583E493D0
:0517C5006F705CFBFAEF
:1017CA0090062875F022E52C121331E52B75F022CC
:1017DA00A42583F583E5822BF582E5833AF583E434
:1017EA0093752D00F52E900000E52E30E706AF2800
:1017FA00AE278004AF2AAE29121C85E52E25E0F516
:0F180A002EE52D33F52DA3E5826408458370DAB2
:101819000BBB00010AEB64204A70A6052CE52C706D
:0F18290002052BC39440E52B9400500302178057
:01183800228D
:0E19F6008E148F158C168D178B188A19891A6E
:101A0400E4F51FAB18AA19A91A121295606CC394B5
:101A140080E51F75F008502FA42515FFE51435F057
:101A2400FE121295FB851B25851C26851D27851E08
:101A340028AD17AC16121A7F7401251AF51AE4356D
:101A440019F519051F80BCA42515FFE51435F0FE12
:101A5400AB18AA19A91A851B27851C28851D298559
:101A64001E2AAD17AC1612176B7402251AF51AE468
:0A1A74003519F519051F051F8089BB
:011A7E002245
:0C1B43008E148F158C168D178A188B19C4
:101B4F00851A35851B36121AFAAB19AA18D3EB95DD
:101B5F001BEA951A5022851582851483D3E5829549
:101B6F0017E5839516500AAF1DAE1C121C85A38076
:081B7F00EB0BBB00010A80D54D
:011B8700223B
:10139200D2A17F017E00121BF6C2A17F0A121BF6A8
:1013A200D2A17F32121BF6E56064207004E55F640F
:1013B2009370241216407D3F7C017F531217537D98
:1013C200007C277F601217537D017C007F6112171A
:1013D20053E4FDFC02140AE56064057004E55F64F1
:1013E2001560030214871216407D3F7C017F531261
:1013F20017537D007C277F601217537D017C007F8D
:10140200611217537D007C277F6A121753E4FDFC9B
:101412007F20121753E4FDFC7F21121753E4FDFCD9
:101422007F80121753E4FDFC7F81121753E4FDFC09
:101432007F82121753E4FDFC7F83121753E4FDFCF5
:101442007F84121753E4FDFC7F851217537D107CB5
:10145200007F90121753E4FDFC7F921217537D0315
:101462007C007F931217537D107C017F95121753D6
:10147200E4FDFC7F97121753E4FDFC7F981217538B
:101482007D73021638E56064287004E55F6493603A
:101492000302163FFD7C017F011217537D007C077A
:1014A2007F021217537D307C107F03121753E4FD25
:1014B200FC7F041217537D017C007FA41217537422
:1014C20002FDFC7F08121753E4FDFC7F091217533B
:1014D200E4FDFC7F0A121753E4FDFC7F0C12175344
:1014E200E4FDFC7F0D121753E4FDFC7F0F1217532E
:1014F200E4FDFC7F101217537D077C007F11121749
:1015020053E4FDFC7F12121753E4FDFC7F13121B00
:10151200EF7D907C167F101217537D277C027F117E
:10152200121BEF7D1C7F12121BED7D007C187F13B6
:101532001217537D1C7C007F291217537D0D7F2BC0
:10154200121BEDE4FDFC7F20121753E4FDFC7F210A
:101552001217537D077C007F301217537D027C03E4
:101562007F311217537D057C017F321217537D069E
:101572007C027F351217537408FDFC7F3612175315
:101582007D067C027F371217537D047C057F38125B
:1015920017537D077C007F391217537D057C017F2D
:1015A2003C1217537408FDFC121738121BF27D3FD0
:1015B2007C017F53121BEF7D007CA77F60121753C3
:1015C2007D017C007F61121753E4FDFC7F6A1217D4
:1015D20053E4FDFC7F80121753E4FDFC7F81121758
:1015E20053E4FDFC7F82121753E4FDFC7F83121744
:1015F20053E4FDFC7F84121753E4FDFC7F85121730
:10160200537D107C007F90121753E4FDFC7F9212F1
:1016120017537D037C007F931217537D107C017F4B
:1016220095121753E4FDFC7F97121753E4FDFC7FDC
:0E163200981217537D337C017F071217532245
:101AE700FDE43EFCAB82AA83E582240FF536E4359C
:031AF70083F5353F
:101AFA008E2F8F308C318D328B828A83AD30AC2F12
:101B0A007F50121753AD32AC317F51121753AD8249
:101B1A00AC837F52121753AD36AC357F531217532D
:101B2A00AD30AC2F7F20121753AD82AC837F2112C8
:091B3A0017537D22E4FF021C5C3C
:101C3C008A668B678D828C83AD07AC06AB82AA83D8
:101C4C00858335858236121AFAAF67AE66021C851B
:10103000EC4D6011E8497017ED33EC3304600DE4BA
:10104000FCFFFEFD22E933E8330470F8021280123F
:10105000124B58046009E4CC248150062850090240
:10106000128A284003021287C0E0EB4A7044B9801C
:1010700006D0E0FB021276EF4E701CBD8008EBFF3D
:10108000EAFEE9FD80EBE98DF0A4FEE5F00211191E
:10109000E9CDF9EAFEEBFFEF89F0A4FCE5F0CE899B
:1010A000F0A42EFFE435F0CD89F0A42DFEE435F058
:1010B0008067EF4E7005BD80D780C3EF8BF0A4AC86
:1010C000F0EE8BF0A42CFCE435F0F8EF8AF0A42CC1
:1010D000E5F038FCE433CB8DF0A42CFCE5F03BF8D4
:1010E000EE8AF0A42CFCE5F038F8E433CF89F0A4C4
:1010F0002CFCE5F038CF3400CE89F0A42FFFE5F0CA
:101100003EFEE433C98DF0A42EFEE5F039CD8AF021
:10111000A42FFFE5F03EFEE43DFD33D0E0FB500799
:101120000BBB000F02128AEC2CFCEF33FFEE33FEF8
:06113000ED33FD02126226
:1011360002128AEC5D046005E8590470030212800D
:1011460012124B580460F6EC4860F2EC7004FDFE97
:10115600FF22C860DB2481C85009C398600250068C
:101166000212879850CAF582E9294B4A7005AB826C
:1011760002127675F0007C1A7880C3EF9BEE9AED2A
:1011860099400DC3EF9BFFEE9AFEED99FDE842F004
:10119600DC23ACF0D0E0FFD0E0FED0E0FDAB822057
:1011A600E7101BEB60BAEC2CFCEF33FFEE33FEEDE1
:1011B60033FD021262E803F830E705C0F075F0006F
:1011C600EF2FFFEE33FEED33FD40B830E7C280AAC5
:1011D60075F020800E75F010800575F0087D007E94
:1011E600007F003392D530D503121323EC33401021
:1011F600EF33FFEE33FEED33FDEC33FCD5F0ED229D
:0E120600E5F0247EA2D513CC92E7CDCEFF22D8
:10121400EDD2E7CD33EC3392D524814006E4FFFED2
:10122400FDFC22FCE4CFCECDCC24E0501174FF8031
:10123400EDC3CC13CCCD13CDCE13CECF13CF0470CE
:07124400F030D5DE02132398
:10124B00E9D2E7C933E833F892D5EDD2E7CD33ECE9
:07125B0033FC5002B2D52262
:10126200EC30E7100FBF000C0EBE00080DBD0004ED
:101272000BEB6014A2D5EB13FCED92E7FD2274FF99
:10128200FCFDFEFF22E480F8A2D574FF13FC7D80F2
:03129200E480EF06
:0300000002196A78
:0C196A00787FE4F6D8FD7581670219B1A2
:10129500BB010689828A83E0225002E722BBFE0257
:0912A500E32289828A83E493228A
:1012AE00BB010CE58229F582E5833AF583E02250F5
:1012BE0006E92582F8E622BBFE06E92582F8E2223F
:0D12CE00E58229F582E5833AF583E4932259
:1012DB00EF8DF0A4A8F0CF8CF0A428CE8DF0A42E27
:0212EB00FE22E1
:1012ED00C2D5EC30E709B2D5E4C39DFDE49CFCEE1C
:1012FD0030E715B2D5E4C39FFFE49EFE12133DC344
:10130D00E49DFDE49CFC800312133D30D507C3E43E
:06131D009FFFE49EFE228A
:0E132300C3E49FFFE49EFEE49DFDE49CFC22DB
:0C133100A42582F582E5F03583F58322C7
:10197600020B98E493A3F8E493A34003F68001F2E4
:1019860008DFF48029E493A3F85407240CC8C33372
:10199600C4540F4420C8834004F456800146F6DF41
:1019A600E4800B0102040810204080901C15E47EA0
:1019B600019360BCA3FF543F30E509541FFEE49336
:1019C600A360010ECF54C025E060A840B8E493A3FD
:1019D600FAE493A3F8E493A3C8C582C8CAC583CA28
:1019E600F0A3C8C582C8CAC583CADFE9DEE780BEE0
:011C3B0000A8
:10133D00BC000BBE0029EF8DF084FFADF022E4CC94
:10134D00F875F008EF2FFFEE33FEEC33FCEE9DEC5D
:10135D00984005FCEE9DFE0FD5F0E9E4CEFD22EDA3
:10136D00F8F5F0EE8420D21CFEADF075F008EF2FED
:10137D00FFED33FD4007985006D5F0F222C398FDDE
:05138D000FD5F0EA227B
:00000001FF
